:100000000C9462000C948A000C948A000C948A0070
:100010000C948A000C948A000C948A000C948A0038
:100020000C948A000C948A000C948A000C948A0028
:100030000C948A000C948A000C948A000C948A0018
:100040000C9455040C948A000C948A000C948A0039
:100050000C948A000C948A000C948A000C948A00F8
:100060000C949F040C948A000000000023002600DA
:10007000290000000008000201000003040700003E
:1000800000000000000000000000250028002B00F8
:1000900000000000240027002A00040404040404D3
:1000A0000404020202020202030303030303010227
:1000B00004081020408001020408102001020408F6
:1000C0001020BA0511241FBECFEFD8E0DEBFCDBF90
:1000D00011E0A0E0B1E0EEE8FEE002C005900D9274
:1000E000AC32B107D9F721E0ACE2B1E001C01D921A
:1000F000A63EB207E1F710E0C2E6D0E004C02197C7
:10010000FE010E943F07C136D107C9F70E94DA05F8
:100110000C9445070C940000CF93DF9390E0FC0112
:10012000E255FF4F249186569F4FFC01849188230E
:10013000C1F090E0880F991FFC01E057FF4FC59177
:10014000D491FC01EA57FF4FA591B4919FB7F89461
:100150008881E22FE0958E2388838C91E823EC93AD
:100160009FBFDF91CF910895833081F028F48130D3
:1001700099F08230A9F008958730A9F08830C9F04D
:100180008430B1F4809180008F7D03C08091800025
:100190008F7780938000089584B58F7784BD08950C
:1001A00084B58F7DFBCF8091B0008F778093B000B6
:1001B00008958091B0008F7DF9CFCF93DF93282FE2
:1001C00030E0F901EE58FF4F8491F901E255FF4FFD
:1001D000D491F901E656FF4FC491CC23A1F08111CF
:1001E0000E94B400EC2FF0E0EE0FFF1FE859FF4F24
:1001F000A591B491EC91ED2381E090E009F480E0C9
:10020000DF91CF91089580E090E0FACF1F93CF93D4
:10021000DF93282F30E0F901EE58FF4F8491F90168
:10022000E255FF4FD491F901E656FF4FC491CC231C
:10023000A9F0162F81110E94B400EC2FF0E0EE0F10
:10024000FF1FEA57FF4FA591B4918FB7F894EC9137
:10025000111108C0D095DE23DC938FBFDF91CF91C1
:100260001F910895DE2BF8CF3FB7F8948091CA0113
:100270009091CB01A091CC01B091CD0126B5A89B66
:1002800005C02F3F19F00196A11DB11D3FBFBA2F28
:10029000A92F982F8827BC01CD01620F711D811DE8
:1002A000911D42E0660F771F881F991F4A95D1F76D
:1002B00008958F929F92AF92BF92CF92DF92EF926A
:1002C000FF924B015C010E9434016B017C010E9492
:1002D00034016C197D098E099F09683E73408105C0
:1002E0009105A8F321E0821A9108A108B10888EECF
:1002F000C80E83E0D81EE11CF11C81149104A104F6
:10030000B10429F7FF90EF90DF90CF90BF90AF90AE
:100310009F908F900895AF92BF92CF92DF92EF920D
:10032000FF920F931F93CF93DF936C017B018B019F
:10033000040F151FEB015E01AE18BF08C017D107EF
:1003400059F06991D601ED91FC910190F081E02D79
:10035000C6010995892B79F7C501DF91CF911F91CE
:100360000F91FF90EF90DF90CF90BF90AF900895E6
:100370001F93CF93DF93C1E0C0935601882399F177
:10038000D091B8001091BA008091BC008A7B809314
:10039000BC0060E082E10E94060160E083E10E940F
:1003A000060110929B01C0939D0110929C0161E097
:1003B00082E10E94060161E083E10E9406018091D2
:1003C000B9008E7F8093B9008091B9008D7F8093B2
:1003D000B90088E48093B80085E48093BC00109352
:1003E000BA00D093B800DF91CF911F91089520916A
:1003F0007701260F3327331F21323105ECF420918A
:100400009B01FC0190E080E0243069F082E00895D7
:10041000A09177012191AC01495A5E4FA40FB52FED
:10042000B11D2C930196861798F380917701680F80
:100430006093770180E0089581E0089508958FEF3B
:100440009FEF08958FEF9FEF08958091500190E006
:100450009195819591090895CF92DF92EF92FF9245
:100460000F931F93CF93DF937C01CB018A012091DF
:100470004F01222389F0EB016B01C40ED51ECC1570
:10048000DD0569F06991D701ED91FC910190F08152
:10049000E02DC7010995F3CF642F0E94F701C80131
:1004A000DF91CF911F910F91FF90EF90DF90CF9050
:1004B0000895CF93DF931F92CDB7DEB76983209164
:1004C0004F012223F9F020914E01203258F021E013
:1004D00030E0FC013383228390E080E00F90DF91D5
:1004E000CF91089580914D01E82FF0E0E35DFE4F3C
:1004F000998190838F5F80934D0180934E0181E0BD
:1005000090E0ECCF61E0CE0101960E94F701F7CFB9
:10051000CF92DF92EF92FF920F931F93CF93DF93CF
:10052000FC01C48121E020934F01C0932C01109263
:100530004D0110924E018385682B8EEC91E00E9454
:100540005902D0914E01D13208F092C00E9434017C
:100550006B017C0180919B01811165C082E08093D9
:100560009B0181E080939D018FEF80939A0110920F
:10057000BF01D093BE01ADE2B1E0EEE9F1E080E071
:10058000D81385C01092C0018091C001CC0FC82B38
:10059000C093C00180919C01813009F07CC0109211
:1005A0009C010E9434016B017C018091C001809309
:1005B000BB008091520190915301A0915401B091E0
:1005C0005501892B8A2B8B2B99F00E9434010091C5
:1005D00052011091530120915401309155016C1931
:1005E0007D098E099F090617170728073907E0F1CB
:1005F0008091BC0083FDD9CF85EC8093BC000E9424
:1006000034016B017C0180919B01823009F445C06B
:1006100080919A018F3F61F180919A01803241F17E
:1006200080919A0125C08091520190915301A0912F
:100630005401B0915501892B8A2B8B2B09F48ACF59
:100640000E943401009152011091530120915401F4
:10065000309155016C197D098E099F0906171707FE
:100660002807390708F076CF809151010E94B80120
:1006700010924D0110924E0110924F01DF91CF91D7
:100680001F910F91FF90EF90DF90CF9008959D9173
:1006900091938F5F75CF85EEB0CF8091520190918D
:1006A0005301A0915401B0915501892B8A2B8B2BBA
:1006B00009F4A9CF0E943401009152011091530115
:1006C00020915401309155016C197D098E099F09C3
:1006D000061717072807390708F095CFC5CF0895E3
:1006E00090E080E00895FC0101900020E9F7319747
:1006F000AF01481B590BBC018AED91E00C948B01B2
:100700008F929F92AF92BF920F931F93CF93DF93DD
:10071000CDB7DEB7A1970FB6F894DEBF0FBECDBF41
:1007200019A2423008F44AE08E010F5D1F4F842E5B
:10073000912CB12CA12CA50194010E941D07E62F3C
:10074000B901CA01EA30F4F4E05DD801EE938D01FD
:10075000232B242B252B79F790E080E0109719F0BC
:10076000CD010E947303A1960FB6F894DEBF0FBEB1
:10077000CDBFDF91CF911F910F91BF90AF909F9010
:100780008F900895E95CE1CF0F931F93CF938C0175
:10079000C62F0E9488026C2F6460C8010E948802E4
:1007A0006C2F6B7FC8010E94880283EC90E0019758
:1007B000F1F7CF911F910F9108950F931F93CF934E
:1007C000DF938C01D62FC42F607F642B0E94C4035B
:1007D00080E1D89FB00111246C2BC801DF91CF912B
:1007E0001F910F910C94C40341E00E94DD0381E04E
:1007F00090E00895CF92DF92EF92FF926B017C011F
:1008000041E06DE28AED91E00E94DD0366277727E3
:10081000CB016C197D098E099F094AE00E94800373
:100820000196FF90EF90DF90CF900895682F606859
:1008300040E08AED91E00C94DD0385ED8093BC00EF
:100840008091520190915301A0915401B0915501B2
:100850000796A11DB11D23E0B695A795979587959D
:100860002A95D1F72091BC0024FD03C010929B0172
:10087000089540915201509153016091540170913B
:100880005501452B462B472B69F30097A105B10570
:1008900041F02AE22A95F1F700C00197A109B109B8
:1008A000E1CF809151010C94B8011F920F920FB6C5
:1008B0000F9211242F933F938F939F93AF93BF93E6
:1008C0008091C6019091C701A091C801B091C90162
:1008D0003091C50123E0230F2D3758F50196A11D56
:1008E000B11D2093C5018093C6019093C701A093C9
:1008F000C801B093C9018091CA019091CB01A09128
:10090000CC01B091CD010196A11DB11D8093CA010A
:100910009093CB01A093CC01B093CD01BF91AF9147
:100920009F918F913F912F910F900FBE0F901F902D
:10093000189526E8230F0296A11DB11DD2CF1F9254
:100940000F920FB60F9211242F933F934F935F9303
:100950006F937F938F939F93AF93BF93EF93FF9387
:100960008091B900887F803609F44AC0F0F588325A
:1009700009F4A5C018F5803109F499C0B8F48823AA
:1009800009F4F5C0883009F492C0FF91EF91BF914E
:10099000AF919F918F917F916F915F914F913F9117
:1009A0002F910F900FBE0F901F901895883109F46A
:1009B00086C0803251F780939A0114C0803409F4C4
:1009C0009BC040F48033B9F38833F9F680939A01E1
:1009D00085ECAEC0803509F483C0883509F494C035
:1009E000883499F60E941D04D0CF883909F48AC052
:1009F00038F5883729F050F4883611F0803729F619
:100A000083E080939B011092990155C0883809F4C6
:100A100079C0803919F0803809F0B7CF80919901F9
:100A2000803208F06FC0E091990181E08E0F8093D1
:100A300099018091BB00F0E0E758FE4F80833BC0F6
:100A4000803B39F0D0F4803A09F477C0883A09F055
:100A50009CCF84E080939B011092780110927701E3
:100A6000F0E0E0E009958091770181110FC081E00D
:100A7000809377011092570109C0803C09F4A8CFF8
:100A8000883C09F4A5CF883B09F07FCFE09178013D
:100A900081E08E0F80937801F0E0E95AFE4F80816B
:100AA0008093BB00909178018091770129C080915B
:100AB000C0018093BB0085EC8093BC0066CF909111
:100AC000BF018091BE01981758F5E091BF0181E008
:100AD0008E0F8093BF01F0E0E256FE4F8081E9CF98
:100AE000E091BF0181E08E0F8093BF018091BB0038
:100AF000F0E0E256FE4F80839091BF018091BE01ED
:100B00009817C8F285E8D8CFE091BF0181E08E0F39
:100B10008093BF018091BB00F0E0E256FE4F8083DE
:100B200080919D0181115ECF81E080939C0184EAD8
:100B30008093BC0010929B0128CF85EC8093BC0071
:100B400010929B0180919901803230F4E0919901DB
:100B5000F0E0E758FE4F10826091990170E089E75C
:100B600091E0F0E0E0E00995109299010ECF10922B
:100B70009A0138CFEEECF1E01382128288EE93E016
:100B8000A0E0B0E084839583A683B78386E091E0FC
:100B900091838083EAEDF1E01382128288E191E093
:100BA000918380838FE3848380E1818782E08287E1
:100BB00013860895789484B5826084BD84B581607D
:100BC00084BD85B5826085BD85B5816085BD809118
:100BD0006E00816080936E00109281008091810090
:100BE0008260809381008091810081608093810088
:100BF000809180008160809380008091B10084604A
:100C00008093B1008091B00081608093B0008091AA
:100C10007A00846080937A0080917A008260809369
:100C20007A0080917A00816080937A0080917A00C6
:100C3000806880937A001092C10087E00E948C0047
:100C400088E00E948C0086E00E948C0087E00E9471
:100C5000DD009093C2018093C1018091DF01886023
:100C60008093DF0112E01093E20162E370E080E024
:100C700090E00E9459016091E5018AED91E00E94A7
:100C8000880268EE73E080E090E00E94590160E322
:100C90008AED91E00E94C403CBE4D6E4CE01019733
:100CA000F1F760E38AED91E00E94C4032197F1F728
:100CB00060E38AED91E00E94C40383E592E001972E
:100CC000F1F760E28AED91E00E94C4036091DF01D8
:100CD000606240E08AED91E00E94DD0384E0809351
:100CE000E00140E06CE08AED91E00E94DD0340E02D
:100CF00061E08AED91E00E94DD03CBE3DFE1CE010C
:100D00000197F1F71093E10140E066E08AED91E090
:100D10000E94DD0340E062E08AED91E00E94DD0385
:100D20002197F1F7C0E0D0E002E310E083E6E82E7F
:100D3000F12C80E00E94160480E291E00E9473038F
:100D4000C0900001D09001018AE0C816D10454F08F
:100D500087E00E941604B601DD0C880B990B4AE06F
:100D60000E94800380910001909101010A97BCF4D8
:100D700087E00E94160486E291E00E94730360916E
:100D8000000170910101072E000C880B990B97FF51
:100D90004DC00E94FA0388E291E00E94730386E04E
:100DA0000E94DD00892B21F41093010100930001C2
:100DB00087E00E94DD006C019093C4018093C30121
:100DC0008091C1019091C201C816D90629F188E02D
:100DD0000E94DD002091000130910101C816D90662
:100DE00049F12F5F3F4F3093010120930001809123
:100DF0000001909101018436910524F010920101C7
:100E000010920001809100019091010197FF04C0B0
:100E1000F0920101E0920001D092C201C092C101A2
:100E2000209709F486CF0E94000083CF4AE00E94F9
:100E30008003B1CF21503109D6CFA1E21A2EAA1BCF
:100E4000BB1BFD010DC0AA1FBB1FEE1FFF1FA2177A
:100E5000B307E407F50720F0A21BB30BE40BF50B77
:100E6000661F771F881F991F1A9469F76095709500
:100E7000809590959B01AC01BD01CF010895EE0FC7
:0E0E8000FF1F0590F491E02D0994F894FFCF28
:100E8E0032000000000059022C0270031E022502DF
:100E9E0022021F0200000000F4038B0170036F0397
:0C0EAE00436F756E743A20000D0A0000BE
:00000001FF
