:020000040000FA
:100000000C946A000C9451150C942A150C949200CF
:100010000C9492000C9492000C9492000C94920018
:100020000C9492000C9492000C9492000C94920008
:100030000C9492000C9492000C9492000C949200F8
:100040000C94E0140C9492000C949E150C9478156A
:100050000C9492000C9492000C9492000C949200D8
:100060000C94D0150C9492007C3C3E5E2B3D3F2FAF
:100070005B5D3B2C2A225C0000000000240027006E
:100080002A0000000000250028002B0000000008C6
:10009000000201000003040700000000000000004F
:1000A000010204081020408001020408102001020F
:1000B000040810200000000023002600290004048A
:1000C0000404040404040202020202020303030300
:1000D0000303EF1611241FBECFEFD8E0DEBFCDBF64
:1000E00025E0AAECB1E001C01D92A73CB207E1F700
:1000F00011E0A0E0B1E0E6E1FDE302C005900D9261
:10010000AA3CB107D9F710E0CAE6D0E004C02197B5
:10011000FE010E94751CC936D107C9F70E942F182D
:100120000C94891E0C94000090E0FC01E457FF4FF2
:100130002491FC01E056FF4F3491FC01E254FF4F43
:10014000E491EE23C9F0222339F0233001F1A8F421
:10015000213019F1223029F1F0E0EE0FFF1FEE57A8
:10016000FF4FA591B4918FB7F894EC91611126C01F
:1001700030953E233C938FBF08952730A9F0283057
:10018000C9F0243049F7809180008F7D03C08091B1
:1001900080008F7780938000DFCF84B58F7784BD18
:1001A000DBCF84B58F7DFBCF8091B0008F778093BC
:1001B000B000D2CF8091B0008F7DF9CF3E2BDACF47
:1001C000CF93DF9390E0FC01E056FF4F24918254DF
:1001D0009F4FFC0184918823C9F090E0880F991FFC
:1001E000FC01E858FF4FA591B491FC01EE57FF4F79
:1001F000C591D49161110DC09FB7F8948C91209551
:1002000082238C938881282328839FBFDF91CF91FD
:100210000895623051F49FB7F8943C91822F8095F5
:1002200083238C93E8812E2BEFCF8FB7F894EC913A
:100230002E2B2C938FBFEACF3FB7F89480911F02EB
:1002400090912002A0912102B091220226B5A89B94
:1002500005C02F3F19F00196A11DB11D3FBFBA2F58
:10026000A92F982F8827BC01CD01620F711D811D18
:10027000911D42E0660F771F881F991F4A95D1F79D
:1002800008958F929F92AF92BF92CF92DF92EF929A
:10029000FF924B015C010E941C016B017C010E94DA
:1002A0001C016C197D098E099F09683E7340810508
:1002B0009105A8F321E0821A9108A108B10888EEFF
:1002C000C80E83E0D81EE11CF11C81149104A10426
:1002D000B10429F7FF90EF90DF90CF90BF90AF90DF
:1002E0009F908F9008952FB7F89460911B027091A2
:1002F0001C0280911D0290911E022FBF0895089547
:1003000008950895AF92BF92CF92DF92EF92FF923D
:100310000F931F93CF93DF936C017B018B01040F2D
:10032000151FEB015E01AE18BF08C017D10759F0C9
:100330006991D601ED91FC910190F081E02DC6010B
:100340000995892B79F7C501DF91CF911F910F9105
:10035000FF90EF90DF90CF90BF90AF900895FC0199
:10036000538D448D252F30E0842F90E0821B930B1A
:10037000541710F0CF96089501970895FC01918DC0
:10038000828D981761F0A28DAE0FBF2FB11D5D96C3
:100390008C91928D9F5F9F73928F90E008958FEF65
:1003A0009FEF0895FC01918D828D981731F0828D19
:1003B000E80FF11D858D90E008958FEF9FEF089570
:1003C000FC01918D228D892F90E0805C9F4F821BD4
:1003D00091098F739927089587E994E00E94E001BD
:1003E00021E0892B09F420E0822F089580E090E03D
:1003F000892B29F00E94EC0181110C9400000895D2
:10040000FC01A48DA80FB92FB11DA35ABF4F2C9189
:10041000848D90E001968F739927848FA689B78980
:100420002C93A089B1898C91837080648C93938D77
:10043000848D981306C00288F389E02D80818F7D1A
:1004400080830895EF92FF920F931F93CF93DF93D2
:10045000EC0181E0888F9B8D8C8D98131AC0E88900
:10046000F989808185FF15C09FB7F894EE89FF89CF
:100470006083E889F98980818370806480839FBF6D
:1004800081E090E0DF91CF911F910F91FF90EF906D
:100490000895F62E0B8D10E00F5F1F4F0F7311277D
:1004A000E02E8C8D8E110CC00FB607FCFACFE889B8
:1004B000F989808185FFF5CFCE010E940002F1CF3E
:1004C000EB8DEC0FFD2FF11DE35AFF4FF0829FB72C
:1004D000F8940B8FEA89FB8980818062CFCFCF931C
:1004E000DF93EC01888D8823B9F0AA89BB89E8895C
:1004F000F9898C9185FD03C0808186FD0DC00FB602
:1005000007FCF7CF8C9185FFF2CF808185FFEDCF7F
:10051000CE010E940002E9CFDF91CF9108958FB7FD
:10052000F89480910F028FBF089561E0FC018481EF
:100530000E94940080910E02811110920E02089583
:100540008EBD00000DB407FEFDCF8EB508958FEF70
:100550000C94A0020F931F93CF93DF93EC010E94A2
:1005600073018B010E94A7028F3F69F00E94730103
:10057000601B710B6C177D07A8F380E0DF91CF91B2
:100580001F910F91089581E0F9CF8CBD9DBD089515
:10059000CF93DF93EC0180910E02811109C081E0BD
:1005A00080930E0280913405909135050E94C5021A
:1005B00060E08C81DF91CF910C9494008F929F9298
:1005C000AF92BF92FF920F931F93CF93DF93EC01F3
:1005D000F62E49015A018E81882389F08F819885F2
:1005E0009C012F5F3F4F38872F838230924018F451
:1005F0000E94A702F3CFCE010E9495021E82CE0177
:100600000E94C8028CE291E00E94AA028F2D8064B1
:100610000E94A00208E110E0D501C401002E04C030
:10062000B695A795979587950A94D2F70E94A00250
:1006300008501109083F8FEF180771F785E9FF206F
:1006400021F028E087E8F2128FEF0E94A00210E06C
:100650000E94A7028A8787FF04C01F3F11F01F5F17
:10066000F7CFDF91CF911F910F91FF90BF90AF9087
:100670009F908F900895AF92BF92CF92DF92EF92AA
:10068000FF920F931F93CF93DF93EC016901C80191
:10069000820F931F8130924050F58E81882379F02C
:1006A00088819981AA81BB8184179507A607B7071E
:1006B00031F48F819885C816D90608F042C0488366
:1006C00059836A837B838B85833039F089E0440FBB
:1006D000551F661F771F8A95D1F79A01AB0161E11B
:1006E000CE010E94DE02882389F083E08D83CE0153
:1006F0000E94950280E0DF91CF911F910F91FF90B2
:10070000EF90DF90CF90BF90AF9008950E9473015B
:100710005B010E94A7028A878F3F69F40E947301E0
:100720006A197B096D327140A0F38FE08D83CE0191
:100730000E949502DCCF8E3F89F418861F8281E0EB
:100740008E838F8198858C159D0550F40E94A70299
:100750008F819885019698878F83F3CF8DE0E6CFC0
:100760006701E00EF11E0E94A702F60181936F015E
:10077000EE15FF05C1F78F819885080F191F18879F
:100780000F838985882319F001151240A0F08E810E
:10079000882389F08F8198859C012F5F3F4F388790
:1007A0002F838230924018F40E94A702F3CFCE012B
:1007B0000E9495021E8281E09ECFCF92DF92EF923F
:1007C000FF920F93CF93DF93EC01690182E1411512
:1007D00051056105710599F08B85833039F089E009
:1007E000440F551F661F771F8A95D1F79A01AB01F9
:1007F00068E1CE010E94DE02882319F084E08D8337
:100800002DC08EEF0E94A00276018EEFD81AF7015C
:1008100081917F010E94A002EC14FD04C1F78FEFCB
:100820000E94A0028FEF0E94A0020E94A7028A8766
:100830008F71853071F4011116C0CE010E949502AE
:1008400081E0DF91CF910F91FF90EF90DF90CF90FB
:10085000089581E18D83CE010E949502CE010E9410
:10086000950280E0EECF88E592E00E94AA02811115
:1008700002C085E1C4CF20E030E0A9016DE0CE01E7
:100880000E94DE02882311F084E1B9CF0E94A70202
:100890008111FACFD2CF0F934091110250911202E1
:1008A00060911302709114024115510561057105A3
:1008B00099F0082F25E432E0809145049091460498
:1008C0000E94DD03882349F0109211021092120257
:1008D000109213021092140281E00F9108950F9369
:1008E000CF93C82F80911002811105C0C1E08C2FD9
:1008F000CF910F91089540910001509101016091B5
:100900000201709103010C2F25E432E0809145042F
:10091000909146040E94DD03811102C0C0E0E7CF40
:10092000CC2321F381E00E944B048823B9F3109279
:100930001002DDCF8F929F92AF92BF92EF92FF9203
:100940000F931F93CF934B015C01C42F8091000143
:1009500090910101A0910201B091030188159905C0
:10096000AA05BB0551F181E00E946F0481110BC003
:1009700080E0CF911F910F91FF90EF90BF90AF90CB
:100980009F908F90089585E4E82E82E0F82E00E095
:1009900012E030E020E0B501A4018091450490917F
:1009A00046040E943B03882319F380920001909231
:1009B0000101A0920201B0920301409110024C2B60
:1009C0004093100281E0D5CF8F929F92AF92BF9259
:1009D000CF92DF92EF92FF92CF9326E335E03093F0
:1009E000460420934504882309F46DC040E060E08C
:1009F00070E0CB010E949A0481110BC080E0CF917E
:100A0000FF90EF90DF90CF90BF90AF909F908F902E
:100A10000895809103048F7789F780910F04909156
:100A20001004A0911104B091120484369105A1051F
:100A3000B10520F3C0900B04D0900C04E0900D049D
:100A4000F0900E04C114D104E104F104B9F240E0C5
:100A5000C701B6010E949A04882381F28091500256
:100A6000909151028115924049F6A0915502AA2316
:100A700029F260915302709154026115710509F4D5
:100A8000BDCF20915202222309F4B8CFA093540580
:100A90002093460590E080E030E0E1E0F0E0C82FF0
:100AA000AF01082E02C0440F551F0A94E2F7241725
:100AB000350769F041E0480F01968930910579F7D3
:100AC00040934F059BCFC12CD12C7601C0CF809392
:100AD0004F0520915B0230915C0250E040E021150F
:100AE000310541F42091690230916A0240916B0214
:100AF00050916C0220934705309348054093490577
:100B000050934A0546015701860E971EA11CB11C41
:100B10008092550590925605A0925705B0925805BF
:100B2000E0915602F0915702F0935B05E0935A056D
:100B3000B0E00E94241CDC01CB01880D991DAA1D88
:100B4000BB1D80935C0590935D05A0935E05B093FB
:100B50005F0525E0EE0FFF1F2A95E1F7E150FE4FFC
:100B6000EF2FFF27E6958E0F9F1FA11DB11D8093CC
:100B7000500590935105A0935205B0935305809072
:100B8000580290905902B12CA12C8114910441F487
:100B90008090650290906602A0906702B090680213
:100BA000C81AD90AEA0AFB0AC80CD91CEA1CFB1CA1
:100BB00004C0F694E794D794C794CA95D2F7C0922C
:100BC0004B05D0924C05E0924D05F0924E0585EF15
:100BD000C8168FE0D806E104F10428F48CE0809375
:100BE000590581E00CCF80E125EFC2162FEFD20628
:100BF000E104F104A0F38091710290917202A0913E
:100C00007302B091740280935C0590935D05A0938C
:100C10005E05B0935F0580E2E2CF4F925F926F92E4
:100C20007F928F929F92AF92BF92CF92DF92EF927C
:100C3000FF920F931F93CF93DF93EC014230510546
:100C40006105710590F480E0DF91CF911F910F91C4
:100C5000FF90EF90DF90CF90BF90AF909F908F90DC
:100C60007F906F905F904F90089589859A85AB85AE
:100C7000BC850196A11DB11D84179507A607B7076E
:100C800010F3CB88DC88ED88FE888F89803109F0ED
:100C900042C0BB27A72F962F852F480159012A0153
:100CA0003B01C80ED91EEA1EFB1E809100019091E7
:100CB0000101A0910201B0910301C816D906EA060C
:100CC000FB0699F58F898031C1F5B301A201552743
:100CD00066277727440F551F4B5B5D4FFA019182C2
:100CE0008082809110028160809310028A89823014
:100CF00080F08D819E81AF81B8858C0D9D1DAE1DCC
:100D0000BF1D8093110290931202A0931302B0931F
:100D1000140281E099CFDB01CA01E7E0B695A795FF
:100D200097958795EA95D1F7B8CF40E0C701B6010E
:100D30000E949A048111C6CF86CFB301A2014F77DA
:100D4000552766277727440F551F440F551F4B5BC8
:100D50005D4FFA0180829182A282B382C2CF8F92CC
:100D60009F92AF92BF92CF92DF92EF92FF920F933A
:100D70001F93CF93DF93FC0181859285A385B48572
:100D80000196A11DB11D84179507A607B70770F43A
:100D900080E0DF91CF911F910F91FF90EF90DF9056
:100DA000CF90BF90AF909F908F9008958388948844
:100DB000A588B6888789803189F5BB27A72F962F0C
:100DC000852FE9016A017B018F01BC01CD01680D0E
:100DD000791D8A1D9B1D8090000190900101A090BB
:100DE0000201B090030186169706A806B90601F520
:100DF000F8018789803111F5DD24EE24FF24F60106
:100E0000EE0FFF1FEB5BFD4F80819181B0E0A0E012
:100E100088839983AA83BB8381E0BBCFDB01CA01AE
:100E2000C7E0B695A79597958795CA95D1F7C9CF8D
:100E300040E00E949A048111DBCFAACFE894C7F862
:100E4000DD24EE24FF24F601EE0FFF1FEE0FFF1F3F
:100E5000EB5BFD4F80819181A281B381BF70D8CFC0
:100E60004F925F926F927F92AF92BF92CF92DF923A
:100E7000EF92FF920F931F93CF93DF9300D000D098
:100E8000CDB7DEB78C0149835A836B837C835901CC
:100E9000C12CD12C7601412C82E0582E612C712C72
:100EA00049815A816B817C819E012F5F3F4FC80130
:100EB0000E94AF06882339F1F8018585A3019201CC
:100EC00004C0220F331F441F551F8A95D2F7DA0141
:100ED000C901C80ED91EEA1EFB1E49815A816B81C9
:100EE0007C818789803111F188EF9FEFAFEFBFE000
:100EF000481759076A077B0798F2F501C082D1822B
:100F0000E282F38281E00F900F900F900F90DF91BB
:100F1000CF911F910F91FF90EF90DF90CF90BF90F6
:100F2000AF907F906F905F904F90089588EF9FEF04
:100F3000A0E0B0E0DDCFCF93DF93FC012581222339
:100F400021F080E0DF91CF910895EC018091590567
:100F5000803159F582E08583178A108E118E128EAA
:100F600080915A0590915B05B0E0A0E025E0880FE4
:100F7000991FAA1FBB1F2A95D1F7838B948BA58B32
:100F8000B68B82E495E09C8F8B8F81E08C831E82F0
:100F90001F82188619861A861B861C861D861E8649
:100FA0001F86188A198A1A8ACDCF803251F683E0BB
:100FB000858340915C0550915D0560915E0570915F
:100FC0005F05478B508F618F728F9F012D5E3F4F62
:100FD00082E495E00E9430078111D3CFB2CF8F9287
:100FE0009F92AF92BF92CF92DF92EF92FF920F93B8
:100FF0001F93CF93DF93EC018D8181110EC080E0B0
:10100000DF91CF911F910F91FF90EF90DF90CF90E4
:10101000BF90AF909F908F9008950B891C892D8968
:101020003E89041715072607370748F34A015B0175
:10103000823031F48A869B86AC86BD8681E0E0CF23
:1010400081149104A104B10449F41E821F82188600
:1010500019861A861B861C861D86F0CF0A851B857D
:101060002C853D85EB8DFC8D858590E00996B90139
:10107000A8014150510961097109082E04C07695F3
:101080006795579547950A94D2F775016401E1E099
:10109000CE1AD108E108F10804C0F694E794D79479
:1010A000C7948A95D2F7C416D506E606F70620F04F
:1010B000012B022B032B11F58F89988DA98DBA8DE9
:1010C0008E839F83A887B9878E010A5F1F4FC11443
:1010D000D104E104F10409F4ADCF4E815F8168854C
:1010E000798598018B8D9C8D0E94AF0691E0C91A7D
:1010F000D108E108F1088111EACF81CFC41AD50ADD
:10110000E60AF70AE1CF3F924F925F926F927F9289
:101110008F929F92AF92BF92CF92DF92EF92FF9207
:101120000F931F93CF93DF93CDB7DEB72C970FB6F6
:10113000F894DEBF0FBECDBF5C01DC015B968D90E5
:101140009C905C9716964D905D906D907C90199751
:10115000411451046104710409F468C0BFEF4B1AD3
:101160005B0A6B0A7B0A312CF40181859285A38589
:10117000B4859C01AD012F5F3F4F4F4F5F4F2987D3
:101180003A874B875C87730162011D821E821F8232
:101190001886F40181859285A385B4852D813E81D1
:1011A0004F815885281739074A075B0708F056C052
:1011B00089859A85AB85BC858C159D05AE05BF05D7
:1011C00050F482E0C82ED12CE12CF12C92E0492E73
:1011D000512C612C712C9E012F5F3F4FB701A6014E
:1011E000C4010E94AF068823C9F189819A81AB812D
:1011F000BC81892B8A2B8B2B09F1260137019FEFAC
:10120000491A590A690A790A2D813E814F81588508
:101210002F5F3F4F4F4F5F4F2D833E834F83588744
:101220003FEFC31AD30AE30AF30AB3CFF4014080B5
:101230005180628073803324339496CFC414D504D4
:10124000E604F70409F70FEF1FEF2FEF3FE0B701B8
:10125000A601C4010E940D06811119C080E02C96E0
:101260000FB6F894DEBF0FBECDBFDF91CF911F91B7
:101270000F91FF90EF90DF90CF90BF90AF909F9035
:101280008F907F906F905F904F903F900895D50121
:1012900016964D915D916D917C911997411551056F
:1012A0006105710539F097018601C4010E940D06A0
:1012B0008823A1F2D5011696CD92DD92ED92FC9293
:1012C0001997332051F0D701C6010196A11DB11D18
:1012D000F40180839183A283B383F5018789908D84
:1012E000A18DB28D892B8A2B8B2B39F48481C78AEF
:1012F000D08EE18EF28E80688483F50184818062D5
:10130000848381E0ACCF1F93CF93DF93FC012581D1
:101310002223D1F1162FEC01848187FF2AC0668534
:1013200077858089918941E00E949A04882361F140
:10133000EA8980E2E89FF0011124EB5BFD4F3097D2
:1013400019F18D81823040F48B899C89AD89BE89E9
:10135000848F958FA68FB78F8F89988D938F828F6B
:101360008F89988DA98DBA8DB58BA48B8C818F7741
:101370008C83111103C08C818F7E8C83812FDF9130
:10138000CF911F910C946F0480E0DF91CF911F915A
:101390000895FF920F931F93CF93DF93EC018D81FC
:1013A000813041F090E080E0DF91CF911F910F916B
:1013B000FF9008958C8181FFF5CF82FD1BC00091C5
:1013C000450410914604C8010E94C8020E94A70269
:1013D000F82EC8010E9495028FEFF812E3CF8C819E
:1013E00085FF1BC060E0CE010E9483098C818F7D48
:1013F0008C83D8CF4B895C896D897E898A859B8552
:10140000AC85BD8584179507A607B707C1F2CE0145
:101410000E94EF078111D3CFC5CF409111025091A7
:1014200012026091130270911402452B462B472B38
:1014300021F080E00E944B04B5CF80618C832A8527
:101440003B85317080E092E0821B930BADCFCF9350
:10145000DF93EC0161E00E948309882311F01D8273
:1014600081E0DF91CF9108952F923F924F925F924A
:101470006F927F928F929F92AF92BF92CF92DF92A4
:10148000EF92FF920F931F93CF93DF9300D000D082
:101490001F92CDB7DEB77C015B01342E5D83DC018A
:1014A00015968C911597813009F0CEC014962C902A
:1014B00021FECAC022FCB4C0C32CDD8022947FE090
:1014C00027222094B22DB1702B2ED7011A964D9160
:1014D0005D916D917C911D97C114D10409F428C1CF
:1014E0005B968D919C915C97FC0174807A948A0143
:1014F0009B0169E036952795179507956A95D1F771
:1015000070228A011170711020C001151105E9F4D3
:1015100016964D915D916D917C91199741155105EC
:101520006105710509F099C057968D919D910D90B7
:10153000BC91A02D0097A105B10509F0B0C0C7016D
:101540000E948308882309F47FC080E092E0801B1A
:10155000910B46018C159D0508F44C01D7015B9653
:101560004D915C915C9716968D919D910D90BC91DB
:10157000A02D0297A109B109FA01258504C0880FA1
:10158000991FAA1FBB1F2A95D2F7468557856089E8
:101590007189840F951FA61FB71F9C01AD01270DF0
:1015A000311D411D511D29013A01811432E093067C
:1015B00009F07BC08091000190910101A09102018E
:1015C000B091030184159505A605B70559F48FEF71
:1015D0009FEFDC018093000190930101A093020131
:1015E000B0930301022D9501B301A201809145043E
:1015F000909146040E94DD03882331F19EEFB91AD1
:10160000C818D908F70182859385A485B585880D0A
:10161000991DA11DB11D82879387A487B58755CFDA
:10162000F701438954896589768982859385A485E4
:10163000B585481759076A077B0709F43DCFC701ED
:101640000E94EF07811138CF81E090E0D701139617
:101650009C938E93129780E007C09E012F5F3F4FAF
:101660000E94AF06811102C090E079C089819A8101
:10167000AB81BC81F701238D348DF901278948EFB7
:101680005FEF60E070E0203121F048EF5FEF6FEF37
:101690007FE084179507A607B70708F050CFF7013A
:1016A00086839783A087B18750CF0115110599F5DF
:1016B000D7011A964D915D916D917C911D9753962E
:1016C0008D919D910D90BC91A02D481759076A07E7
:1016D0007B0708F181E00E946F04882309F4B4CFEE
:1016E0004092000150920101609202017092030148
:1016F00080911002816080931002C8018B5B9D4F26
:10170000D5019C01280D391DFC012E173F0759F00A
:101710004D914193FACF41E0C301B2010E949A0476
:101720008111EBCF91CF281B390BA20EB31E68CFCE
:10173000F70183899489A589B68984179507A60737
:10174000B70738F48481438B548B658B768B806824
:101750008483F701848183FD1AC0832D9D810F90BE
:101760000F900F900F900F90DF91CF911F910F91DD
:10177000FF90EF90DF90CF90BF90AF909F908F90B1
:101780007F906F905F904F903F902F90089561E011
:10179000C7010E948309882309F456CFDECFCF9377
:1017A000DF931F92CDB7DEB7698341E050E0BE0101
:1017B0006F5F7F4F0E94340A0F90DF91CF910895A1
:1017C000FC01DB0112968D919C9113979383828388
:1017D0008EE391E09183808314968C911497848397
:1017E00015968C911597858316964D915D916D9107
:1017F0007C91199746835783608771871A964D911C
:101800005D916D917C911D974287538764877587A1
:101810001E964D915D916D917C91519746875787AA
:10182000608B718B52968C915297828B53964D910F
:101830005D916D917C915697438B548B658B768B24
:1018400057964D915D916D917C915A97478B508F32
:10185000618F728F5B968D919C91948F838F089589
:10186000FC01818D928D009719F061E00C94830941
:101870000895DC015996ED91FC913097B9F0838978
:101880009489A589B6894285538564857585841BAD
:10189000950BA60BB70B811520E89207A105B105A2
:1018A00038F08FEF9FE7A0E0B0E0089590E080E08F
:1018B0000895DC0159968D919C91009739F0DC01D7
:1018C000ED91FC910480F581E02D099490E080E099
:1018D0000895CF93DF93EC01E98DFA8D309749F4A9
:1018E00081E090E09B838A8390E080E0DF91CF915C
:1018F000089513821282898D9A8D0E94340AE98D8F
:10190000FA8D22813381232B59F7F0CFCF93DF93C8
:101910001F92CDB7DEB76983DC01ED91FC910280A7
:10192000F381E02D41E050E0BE016F5F7F4F0995EC
:101930000F90DF91CF9108952F923F924F925F9237
:101940006F927F928F929F92AF92BF92CF92DF92CF
:10195000EF92FF920F931F93CF93DF9300D01F92CC
:10196000CDB7DEB7FC018581811118C08FEF9FEFE5
:101970000F900F900F90DF91CF911F910F91FF90DB
:10198000EF90DF90CF90BF90AF909F908F907F901F
:101990006F905F904F903F902F900895848180FFCB
:1019A000E5CF438954896589768982859385A485A5
:1019B000B585312C212C481759076A077B0719F088
:1019C00022242394312C6F012101CE0101963C0188
:1019D000DF011696BB83AA834114510409F4C5C0E4
:1019E000F60142855385648575854A01F1E09F22A1
:1019F000D6015B968D919C915C978A019B01E9E0F1
:101A00003695279517950795EA95D1F71596EC9198
:101A1000E230E9F5FC01628D738D848D958D600F48
:101A2000711F821F931FA12C22E0B22EA818B908A3
:101A30004A145B0408F45201F601248126FD04C017
:101A4000A114F2E0BF0671F40091000110910101B0
:101A50002091020130910301061717072807390763
:101A600009F05EC040E00E949A04882309F47ECF0A
:101A7000C4018B5B9D4FD3019C012A0D3B1DFC01D2
:101A80002E173F0709F46CC041914D93F9CFDC014B
:101A90001496BC90BA94B0228114910479F4B110D8
:101AA0000DC0452B462B472B69F5F6018789908D94
:101AB000A18DB28D86839783A087B187D6015B966F
:101AC000ED91FC915C9716966D917D918D919C9115
:101AD00019976250710981099109258504C0660F23
:101AE000771F881F991F2A95D2F7068517852089A9
:101AF0003189600F711F821F931F6B0D711D811D36
:101B0000911D91CFD60116964D915D916D917C916D
:101B100019972A813B810E94AF068111CFCF26CF32
:101B2000730185019401AB01BC0180914504909142
:101B300046040E943B03882309F418CF6A0C7B1CDF
:101B4000F60182859385A485B5858A0D9B1DA11D0F
:101B5000B11D82879387A487B5874A185B083CCF5D
:101B6000281B390B620E731EEBCF2A94232809F031
:101B7000FDCE898190E0FCCEFC01818D928D009795
:101B800011F00C949C0C8FEF9FEF08950F931F930F
:101B9000CF93DF93EC01898D9A8D10E000E00097E0
:101BA00099F00E949C0C8C010F3F100769F0898D01
:101BB0009A8DFC0142855385648575854150510994
:101BC000610971090E94EF07C801DF91CF911F9150
:101BD0000F9108952091EB01260F3327331F2132F7
:101BE0003105ECF420916D04FC0190E080E024309C
:101BF00069F082E00895A091EB012191AC01455379
:101C00005E4FA40FB52FB11D2C930196861798F344
:101C10008091EB01680F6093EB0180E0089581E013
:101C2000089510926D0481E080936C041092470433
:101C300061E082E10E94940061E083E10E949400EF
:101C4000E9EBF0E080818E7F808380818D7F8083CF
:101C500088E48093B80085E48093BC000895CF9316
:101C6000DF9391E09093CA018823B9F0C091B80046
:101C7000D091BA008091BC008A7B8093BC0060E068
:101C800082E10E94940060E083E10E9494000E943F
:101C9000110ED093BA00C093B800DF91CF91089590
:101CA000CF92DF92EF92FF920F931F93CF93DF9328
:101CB000D091960481E0D13208F09CC0C091950487
:101CC0000E941C016B017C0180916D0481116CC02C
:101CD00082E080936D0481E080936C048FEF8093A9
:101CE0006B0410926A04D0936904A5E7B4E0E9E4B8
:101CF000F4E080E0D8138DC010924804809148042D
:101D0000CC0FC82BC093480480914704813009F060
:101D100084C0109247040E941C016B017C018091D9
:101D200048048093BB0080916F0490917004A0914F
:101D30007104B0917204892B8A2B8B2BA1F00E9425
:101D40001C0100916F041091700420917104309176
:101D500072046C197D098E099F0906171707280759
:101D6000390708F442C08091BC0083FDD8CF85ECD0
:101D70008093BC000E941C016B017C0180916D046A
:101D8000823009F44CC080916B048F3F09F469C024
:101D900080916B04803209F466C080916B048033BB
:101DA00009F463C084E026C080916F0490917004B0
:101DB000A0917104B0917204892B8A2B8B2B09F4AA
:101DC00083CF0E941C0100916F0410917004209138
:101DD0007104309172046C197D098E099F090617F0
:101DE00017072807390708F06FCF80916E040E940B
:101DF0002F0E85E0109274041092960410927304D2
:101E0000DF91CF911F910F91FF90EF90DF90CF90D6
:101E100008959D9191938F5F6DCF85EEA9CF8091AD
:101E20006F0490917004A0917104B0917204892B99
:101E30008A2B8B2B09F4A2CF0E941C0100916F0406
:101E40001091700420917104309172046C197D0915
:101E50008E099F09061717072807390708F08ECF44
:101E6000C4CF80E0C7CF82E0C5CF83E0C3CF089561
:101E7000E091240280912302E81730F4F0E0EB5D5A
:101E8000FD4F808190E008958FEF9FEF089590912E
:101E90002402809123022FEF3FEF981748F4E92F97
:101EA000F0E0EB5DFD4F208130E09F5F90932402D6
:101EB000C90108958091230290912402891B990BF6
:101EC0000895CF92DF92EF92FF920F931F93CF93DB
:101ED000DF937C01CB018A0120917304222389F0D6
:101EE000EB016B01C40ED51ECC15DD0569F06991BF
:101EF000D701ED91FC910190F081E02DC70109958A
:101F0000F3CF642F0E94EA0DC801DF91CF911F919A
:101F10000F91FF90EF90DF90CF900895CF93DF93D4
:101F20001F92CDB7DEB76983209173042223F9F0A5
:101F300020919604203258F021E030E0FC013383F8
:101F4000228390E080E00F90DF91CF9108958091FF
:101F50007404E82FF0E0EB58FB4F998190838F5F7A
:101F6000809374048093960481E090E0ECCF61E06C
:101F7000CE0101960E94EA0DF7CF682F8FE895E019
:101F80000C948E0FFC01248131E030937304209374
:101F9000950410927404109296048385862B90E029
:101FA0000E94BD0F0C94500E089590E080E00895BB
:101FB000DC01ED91FD918081ED91FD919081ED919C
:101FC000FD916C9163708E2309F064609F2309F08A
:101FD0006860E5EFFFE0E60FF11D659565956D938F
:101FE0006D917D918D919D91099423C01AC012C06D
:101FF00016C010C01EC009C014C013C006C019C04E
:1020000009C00DC007C00DC014C0625070408040B0
:1020100090400BC0615070408040904006C06E5FA1
:1020200001C06F5F7F4F8F4F9F4F9E938E937E9324
:102030006E93089580917F05909180050C94D80F40
:1020400080918105909182050C94D80FCF92DF92F8
:10205000EF92FF920F931F930E941C016B017C0172
:1020600080916D04811163C081E080936D04809341
:102070006C049FEF90936B0410926A0410926904B1
:102080008093480480914804806D80934804809137
:102090004704813009F07CC0109247040E941C0163
:1020A0006B017C01809148048093BB0080916F0498
:1020B00090917004A0917104B0917204892B8A2BC5
:1020C0008B2BA1F00E941C0100916F0410917004F1
:1020D00020917104309172046C197D098E099F0959
:1020E000061717072807390708F442C08091BC007B
:1020F00083FDD8CF85EC8093BC000E941C016B014E
:102100007C0180916D04813009F444C080916A049F
:10211000811162C080916A04A9E4B4E0E5E2F2E0D2
:1021200090E0981751F12D9121939F5FFACF809104
:102130006F0490917004A0917104B0917204892B86
:102140008A2B8B2B09F48CCF0E941C0100916F0409
:102150001091700420917104309172046C197D0902
:102160008E099F09061717072807390708F078CF47
:1021700080916E040E942F0E80E0109224028093C2
:1021800023021F910F91FF90EF90DF90CF90089561
:1021900085EEB1CF80916F0490917004A09171048D
:1021A000B0917204892B8A2B8B2B09F4AACF0E9441
:1021B0001C0100916F041091700420917104309102
:1021C00072046C197D098E099F09061717072807E5
:1021D000390708F096CFCCCF81E09ECFCF92DF9227
:1021E000EF92FF921F93CF93DF93EC0180E2689F01
:1021F000F0011124EB5BFD4F9385917161F0842F09
:10220000827449F080E0DF91CF911F91FF90EF90B1
:10221000DF90CF900895142F6A8B809100019091E8
:102220000101A0910201B09103018E879F87A88BC5
:10223000B98BC488D588F12CE12C7601DD24CC241F
:10224000CF8AD88EE98EFA8E828D938DB0E0A0E091
:10225000AC01BD014C295D296E297F294F8B588F18
:10226000698F7A8F83858871B1F4848D958DA68D61
:10227000B78D8B8B9C8BAD8BBE8B81E08D831F705C
:102280001C831E821F82188619861A861B861C864E
:102290001D8681E0B8CF803109F0B4CF9E012D5E5C
:1022A0003F4F8B8D9C8D0E943007882309F4AACF65
:1022B00084E0E4CF0F931F93CF938C01C62F0E942D
:1022C000C20F6C2F6460C8010E94C20F6C2F6B7F1D
:1022D000C8010E94C20F83EC90E00197F1F7CF9103
:1022E0001F910F9108950F931F93CF93DF938C014C
:1022F000D62FC42F607F642B0E945A1180E1D89F93
:10230000B00111246C2BC801DF91CF911F910F9167
:102310000C945A11CF93DF93CDB7DEB728970FB641
:10232000F894DEBF0FBECDBF98E0EEE0F1E0DE0135
:10233000119601900D929A95E1F79091BF0598172B
:1023400008F48FEF90E0880F991F21E030E02C0F08
:102350003D1F820F931FFC016081606840E087EBA6
:1023600095E028960FB6F894DEBF0FBECDBFDF9183
:10237000CF910C94731141E00E94731181E090E0C1
:102380000895FB0101900020E9F73197AF01461B4A
:10239000570BDC01ED91FC910280F381E02D099453
:1023A0000F931F93CF93DF93EC01FB014481558181
:1023B00060817181E881F9810280F381E02D0995C6
:1023C0008C0164E671E0CE010E94C111800F911F63
:1023D000DF91CF911F910F910895CF93DF93EC017F
:1023E00088819981009711F00E94171D1982188227
:1023F0001D821C821B821A82DF91CF910895FC01FD
:1024000080819181009711F00C94171D08950F930E
:102410001F93CF93DF93EC0188819981009759F046
:102420002A813B812617370730F081E0DF91CF9179
:102430001F910F9108958B016F5F7F4F0E94A01D28
:10244000009759F0998388831B830A832C813D81EF
:10245000232B59F7FC011082E8CF80E0E7CFEF9201
:10246000FF920F931F93CF93DF936115710541F492
:1024700080E0DF91CF911F910F91FF90EF90089531
:1024800041155105B1F07B01EC010C811D81040F58
:10249000151FB8010E940712882351F32881398142
:1024A0008C819D81B701820F931F0E94731E1D8333
:1024B0000C8381E0DECFCF93DF93EC0141E050E06D
:1024C00067E671E00E942F12811103C0CE010E94C5
:1024D000ED11CE01DF91CF910895EF92FF920F930E
:1024E0001F93CF93DF93EC017B018A01BA010E9415
:1024F000071281110BC0CE010E94ED11CE01DF91B8
:10250000CF911F910F91FF90EF9008951D830C8341
:10251000B701888199810E94731EF0CFEF92FF92DC
:102520000F931F93CF93DF93CDB7DEB729970FB6E5
:10253000F894DEBF0FBECDBF8C01862FF80111824B
:10254000108213821282158214824AE09E012F5F4C
:102550003F4F7901B90190E00E94FA1BF701019009
:102560000020E9F73197AF014E195F09B701C801A3
:102570000E946D1229960FB6F894DEBF0FBECDBF34
:10258000DF91CF911F910F91FF90EF9008953F92AF
:102590004F925F926F927F928F929F92AF92BF9273
:1025A000CF92DF92EF92FF920F931F93CF93DF931F
:1025B000CDB7DEB72B970FB6F894DEBF0FBECDBFF9
:1025C0007C01FE013196CE010C966F0130E2319311
:1025D000E817F907E1F7DA0130E087E09D91B92EBD
:1025E000992309F43CC09E32F1F48A30C9F480E0AA
:1025F0002B960FB6F894DEBF0FBECDBFDF91CF9103
:102600001F910F91FF90EF90DF90CF90BF90AF9010
:102610009F908F907F906F905F904F903F90089524
:1026200038E08AE0DBCFE8E6F0E04491442321F093
:1026300031969413FACFDBCF8317C8F24FED490FD1
:102640004E35A8F64FE9490F4A3118F440EEB42E42
:10265000B90EF601E30FF11DB0823F5FBFCF898154
:10266000803229F2322E8B01DB015B968D919C9199
:102670005C97F701948F838F16961D921D921D9281
:102680001C921997FB011286138614861586F80191
:1026900082859385A485B585438954896589768922
:1026A00084179507A607B70708F04DC025E0B69533
:1026B000A795979587952A95D1F7F82FFF70AF2E9C
:1026C000D80115968C91823008F491CFC8010E94F0
:1026D0009C0C97FD8CCFF80182859385A485B585E8
:1026E0004F96A11DB11D82879387A487B587F0E21D
:1026F000AF9EB00111246B5B7D4F6115710509F42C
:1027000076CFDB018C91882341F0853E09F062C0D1
:10271000BB2029F0BB24B394BACFB1100EC0F7018F
:10272000A28A8091000190910101A0910201B091D3
:10273000030186879787A08BB18BDB018C91811178
:10274000E9CFBB24B394832D8271823109F04FCF3E
:10275000BB2009F44DC0F701668577858089918992
:1027600041E00E949A04882309F441CFD701529690
:102770008C91B0E28B9FC00111248B5B9D4F009721
:1027800009F435CFFC013A9626E1DF011D922A9526
:10279000E9F72BE0F601DC0101900D922A95E1F7B3
:1027A00021E238E2FC01318B208B40E058E0578772
:1027B0004687338B228B318F208F578B468B81E05E
:1027C0000E946F04882309F412CF432DD70152963B
:1027D0006C910AC04BE050E0C6010E945D1E892B3F
:1027E00009F055CF432D6A2DC7010E94EE1000CF8E
:1027F000F8018581823009F4FACEC8010E9483086D
:10280000882309F4F4CED8015B96ED91FC915C9796
:1028100016968D909D90AD90BC901997B2E08B1A52
:102820009108A108B108858504C0880C991CAA1CD0
:10283000BB1C8A95D2F786859785A089B189880EB9
:10284000991EAA1EBB1E848124013501480E511C0D
:10285000611C711C84149504A604B70409F1E1E01D
:102860004E1A51086108710881E00E946F048823A4
:1028700009F4BDCEE5E4F2E0119285E494E08E1710
:102880009F07D1F74092000150920101609202012E
:102890007092030180911002816080931002DACF60
:1028A000D8015B96ED91FC91258580E092E0A0E057
:1028B000B0E004C0880F991FAA1FBB1F2A95D2F74A
:1028C000F8014389548965897689840F951FA61F6D
:1028D000B71F838B948BA58BB68BD70152961C9216
:1028E00085E492E04FCFEF92FF920F931F93CF9327
:1028F000DF93EC017B018A011B821A8288EE93E050
:10290000A0E0B0E08C839D83AE83BF838AE191E039
:10291000998388838DE190E00E947B1C9A8F898F38
:10292000009779F02DE1F701DC0101900D922A95D5
:10293000E1F74CE050E0B801CE010C960E947A1EFF
:10294000188EDF91CF911F910F91FF90EF90089516
:1029500085ED8093BC0080916F0490917004A091EC
:102960007104B09172040796A11DB11D23E0B695C4
:10297000A795979587952A95D1F72091BC0024FDBE
:1029800003C010926D04089540916F04509170043B
:102990006091710470917204452B462B472B69F3AB
:1029A0000097A105B10541F02AE22A95F1F700C090
:1029B0000197A109B109E1CF80916E040C942F0E0B
:1029C0001F920F920FB60F9211242F933F938F9364
:1029D0009F93AF93BF9380911B0290911C02A09193
:1029E0001D02B0911E0230911A0223E0230F2D37F1
:1029F00058F50196A11DB11D20931A0280931B0268
:102A000090931C02A0931D02B0931E0280911F029E
:102A100090912002A0912102B09122020196A11D65
:102A2000B11D80931F0290932002A0932102B093C6
:102A30002202BF91AF919F918F913F912F910F9063
:102A40000FBE0F901F90189526E8230F0296A11D28
:102A5000B11DD2CF1F920F920FB60F9211242F9358
:102A60003F934F935F936F937F938F939F93AF9316
:102A7000BF93EF93FF93E0910601F0910701099551
:102A8000FF91EF91BF91AF919F918F917F916F9146
:102A90005F914F913F912F910F900FBE0F901F901C
:102AA00018951F920F920FB60F9211242F933F93F8
:102AB0004F935F936F937F938F939F93AF93BF9346
:102AC000EF93FF93E0910401F09105010995FF91C7
:102AD000EF91BF91AF919F918F917F916F915F9196
:102AE0004F913F912F910F900FBE0F901F9018950F
:102AF0001F920F920FB60F9211242F933F934F9373
:102B00005F936F937F938F939F93AF93BF93EF9355
:102B1000FF9387E994E00E940002FF91EF91BF913B
:102B2000AF919F918F917F916F915F914F913F9165
:102B30002F910F900FBE0F901F9018951F920F921C
:102B40000FB60F9211242F938F939F93EF93FF93C0
:102B5000E091A704F091A8048081E091AD04F09188
:102B6000AE0482FD1BC090818091B0048F5F8F7393
:102B70002091B104821741F0E091B004F0E0E956F1
:102B8000FB4F958F8093B004FF91EF919F918F91B0
:102B90002F910F900FBE0F901F9018958081F4CF4A
:102BA0001F920F920FB60F9211242F933F934F93C2
:102BB0005F936F937F938F939F93AF93BF93EF93A5
:102BC000FF938091B900887F803609F44AC0F0F500
:102BD000883209F4A7C018F5803109F49BC0B8F415
:102BE000882309F4F9C0883009F494C0FF91EF916B
:102BF000BF91AF919F918F917F916F915F914F9115
:102C00003F912F910F900FBE0F901F901895883114
:102C100009F488C0803251F780936B0414C080346B
:102C200009F49DC040F48033B9F38833F9F68093FA
:102C30006B0485ECB0C0803509F485C0883509F493
:102C400096C0883499F60E94A814D0CF883909F428
:102C50008CC038F5883729F050F4883611F0803769
:102C600029F683E080936D0410920D0257C08838D6
:102C700009F47BC0803919F0803809F0B7CF809112
:102C80000D02803208F071C0E0910D0281E08E0FDC
:102C900080930D028091BB00F0E0E351FE4F8083F2
:102CA0003DC0803B39F0E0F4803A09F479C0883ABD
:102CB00009F09CCF84E080936D041092EC01109297
:102CC000EB01E0911702F091180209958091EB0158
:102CD00081110FC081E08093EB011092CB0109C0FC
:102CE000803C09F4A6CF883C09F4A3CF883B09F0C7
:102CF0007DCFE091EC0181E08E0F8093EC01F0E05C
:102D0000E553FE4F80818093BB009091EC01809150
:102D1000EB0129C0809148048093BB0085EC80932F
:102D2000BC0064CF90916A0480916904981758F5AB
:102D3000E0916A0481E08E0F80936A04F0E0E75B23
:102D4000FB4F8081E9CFE0916A0481E08E0F809390
:102D50006A048091BB00F0E0E75BFB4F80839091B9
:102D60006A04809169049817C8F285E8D8CFE09189
:102D70006A0481E08E0F80936A048091BB00F0E0CA
:102D8000E75BFB4F808380916C0481115CCF81E015
:102D90008093470484EA8093BC0010926D0426CF90
:102DA00085EC8093BC0010926D0480910D028032FE
:102DB00030F4E0910D02F0E0E351FE4F108260919B
:102DC0000D0270E0E0911502F09116028DEE91E097
:102DD000099510920D020ACF10926B0434CFCF9355
:102DE000DF9310929A041092990488EE93E0A0E089
:102DF000B0E080939B0490939C04A0939D04B093B7
:102E00009E042CE231E0309398042093970425EC43
:102E100030E03093A4042093A30424EC30E03093FA
:102E2000A6042093A50420EC30E03093A80420935E
:102E3000A70421EC30E03093AA042093A90422ECEB
:102E400030E03093AC042093AB0426EC30E03093B8
:102E5000AE042093AD041092B0041092B10410920D
:102E6000B2041092B30420E5209334051092350586
:102E700010923B0510923C0510923F0510924105BF
:102E800042E050E060E070E040934205509343051B
:102E9000609344057093450510925905109263059F
:102EA000109262052EE331E03093610520936005B6
:102EB00010926505109292051092910580939305EA
:102EC00090939405A0939505B09396058AE491E0BC
:102ED0009093900580938F051092BA051092B905D2
:102EE0008CE591E09093B8058093B70587E28093D5
:102EF000BB0580E18093C00582E08093C1051092FC
:102F0000C2058FE895E090939C0580939B051092F5
:102F10009D0510929E0510929F051092A00510929B
:102F2000A1051092A2051092A3051092A40510927B
:102F3000A5051092B3051092B2051092B10510923A
:102F4000B0051092A6051092A7051092A805109240
:102F5000A9051092AA051092AB051092AC0510922B
:102F6000AD051092AE051092AF051092B505109206
:102F7000B4051092B60562E082E00E94E00062E0D3
:102F800083E00E94E000E0ECF0E0E491F0E0EE0F7E
:102F9000FF1FEC54FF4FA591B491B0938405A0930B
:102FA0008305E2EAF0E0449140938705E1ECF0E02C
:102FB000E491F0E0EE0FFF1FEC54FF4FC591D49168
:102FC000D0938605C0938505E3EAF0E0E491E093B1
:102FD000880510928A0510928B0510928C0510922C
:102FE0008D052BE33FE1C9010197F1F79C91842FF7
:102FF000892391E009F490E08881E82309F0926048
:1030000023E835E0909389053093800520937F0570
:103010008AE190E190930501809304018091690019
:103020008C7F816080936900E89A81E080938E05AF
:10303000309382052093810580E290E1909307010F
:103040008093060180916900837F8460809369008A
:10305000E99A82E080938E05DF91CF910895CF9316
:10306000DF93CDB7DEB7CE57D1090FB6F894DEBFE8
:103070000FBECDBF789484B5826084BD84B5816075
:1030800084BD85B5826085BD85B5816085BD809133
:103090006E00816080936E001092810080918100AB
:1030A00082608093810080918100816080938100A3
:1030B000809180008160809380008091B100846065
:1030C0008093B1008091B00081608093B0008091C6
:1030D0007A00846080937A0080917A008260809385
:1030E0007A0080917A00816080937A0080917A00E2
:1030F000806880937A001092C10060E086E00E94B0
:10310000E000109224021092230210927404109294
:1031100096040E94110E8FE791E09093180280931D
:10312000170280E891E090931602809315021092A6
:10313000BC058091C105823018F098E09093BC05E1
:103140008093BF0562E370E080E090E00E9441015F
:103150006091C20587EB95E00E94C20F68EE73E0B4
:1031600080E090E00E94410160E387EB95E00E94DF
:103170005A110BE416E4C8010197F1F760E387EBFD
:1031800095E00E945A11C8010197F1F760E387EBBF
:1031900095E00E945A1183E592E00197F1F760E211
:1031A00087EB95E00E945A116091BC05606240E097
:1031B00087EB95E00E94731184E08093BD0540E0A9
:1031C0006CE087EB95E00E94731140E061E087EBD3
:1031D00095E00E9473110BE31FE1C8010197F1F71D
:1031E00082E08093BE0540E066E087EB95E00E94B8
:1031F000731140E062E087EB95E00E947311C80113
:103200000197F1F710927404109296040E94110E27
:1032100081E08093730488E6809395040E94500EA9
:1032200080E00E948A1169E671E087EB95E00E94D8
:10323000C11181E00E948A1180916505882321F0E7
:1032400080E695E00E94270A1092410510923F0502
:1032500010923C0510923B0584E080933A050E9451
:1032600073018B0161E080913A050E94E00061E00A
:1032700080913A050E949400FFB6F894809119025B
:10328000811127C0E8ECF0E08491EAEAF0E0949143
:10329000E82FF0E0EE0FFF1FE858FF4FA591B49123
:1032A000EC91E92321F461E08AE00E94940061E05E
:1032B0008AE00E94E0008CB580618CBD8CB5806492
:1032C0008CBD61E08DE00E94E00061E08BE00E9437
:1032D000E000809119028F5F80931902FFBE82E5A2
:1032E0008093340510923505809134059091350511
:1032F0000E94C5029AE0F92E8FEF0E94A002FA9474
:10330000F110FACF86E395E00E94C80220E030E099
:10331000A90160E086E395E00E94DE02F82E80932A
:10332000400581E0F816A9F00E947301601B710B43
:10333000613D774058F381E080933B0586E395E05B
:103340000E94950263E971E087EB95E00E94C1114C
:10335000FFCF2AEA31E040E050E068E086E395E004
:103360000E94DE0282FF2AC0F09241058091410551
:10337000812C912C5401823029F4812C912CA12C88
:10338000B0E4BB2E20E030E0A90167E386E395E0DE
:103390000E94DE02A501940169E286E395E00E94A5
:1033A000DE02809340058823D1F00E947301601BE8
:1033B000710B613D774030F388E0BECF84E0F82E9A
:1033C0000E94A70280934005FA94F110F9CF8A3A3F
:1033D00011F082E0B1CF82E080934105C7CF8091A8
:1033E00041058230D1F420E030E0A9016AE386E3B0
:1033F00095E00E94DE02882311F086E09DCF0E94B6
:10340000A702807C803C19F483E0809341050E94F0
:10341000A7020E94A7020E94A70286E395E00E94ED
:10342000950280E5809334051092350581E00E9475
:10343000E404882309F48EC180E695E00E949B078E
:10344000882309F47FCF61E871E087EB95E00E9463
:10345000C11164E671E087EB95E00E94C11140E084
:1034600061E087EB95E00E9473118BE39FE1019788
:10347000F1F7F8EE4F2EF3E05F2E612C712CAAE1EC
:103480002A2EA1E03A2E8E0107581F4F6EE3A62E7A
:1034900061E0B62E78E6D72EE0E08E2EE0E09E2E9C
:1034A0001C821B82BA82A9821E82CE0101960E94D2
:1034B0009B07BE016F5F7F4FCE01CB960E94E00B52
:1034C00019A218A2BF8EAE8E1BA221968FAD219796
:1034D000811147C16C961FAE1EAE6C97A0964CAE84
:1034E0005DAE6EAE7FAEA0976A963FAE2EAE6A9787
:1034F000E3961FAE1EAEE397A5961FAEA597F80103
:1035000011821082138212821582148250E040E0F0
:1035100066E671E0C8010E946D1281E00E948A1186
:10352000E396EEADFFADE397309709F456C1858180
:10353000882309F452C1FF24F394F0927304D092CB
:103540009504109274041092960490E080E00E941A
:10355000BD0F0E94500E0E9426108FE895E00E9439
:10356000470F8F77282F30E044E0359527954A950F
:10357000E1F7922F990F990F622F691B660F680F61
:10358000CE0101960E948E12F0927304D09295049F
:10359000109274041092960481E090E00E94BD0F96
:1035A0000E94500E0E9426108FE895E00E94470F5F
:1035B0009C0154E0359527955A95E1F72F703327F4
:1035C000922F990F990F622F691B660F680FCE011A
:1035D0004E960E948E12F0927304D092950410922F
:1035E00074041092960482E090E00E94BD0F0E9445
:1035F000500E0E9426108FE895E00E94470FE82E9B
:10360000F0927304109274041092960482E090E099
:103610000E94BD0F0E94500E0E9426108FE895E078
:103620000E94470FE6FCC8C0AC0124E055954795C1
:103630002A95E1F74F705527942F990F990F642F12
:10364000691B660F680FCE018D589F4F0E948E1226
:103650001CAE1BAE1EAE1DAE21961FAE1EAE219738
:10366000E5966EAD7FADE5976115710541F0E99680
:103670004EAD5FADE997CE01CB960E946D12CE01A3
:10368000CB960E945B127C014AA15BA16E8D7F8D5F
:103690000E942F12811103C0C7010E94ED11C701C2
:1036A0000E945B127C014D815E8169817A810E945A
:1036B0002F12811103C0C7010E94ED11E016F1061F
:1036C00061F0F701608171816115710509F481C0B4
:1036D00044815581C8010E946D12CE01CB960E9493
:1036E000FF11CE018D589F4F0E94FF11CE014E96C3
:1036F0000E94FF11CE0101960E94FF11B801CE0178
:10370000885A9F4F0E94D011E3968EAD9FADE397EC
:10371000009761F00E94270AE3968EAD9FADE39774
:103720000E94171DE3961FAE1EAEE397B80187EB0C
:1037300095E00E94D011C8010E94FF1181149104EC
:1037400009F4AECE0E94EC01882309F49FCE0E94BA
:10375000000099CE80E00E94E404882309F4F2CDB1
:103760006BCE27E14DEB51E0BE01655C7F4FCE0192
:103770004E960E94C712882309F4ACCECE01CB9698
:103780000E94270A49A95AA96BA97CA9CE014E9685
:103790000E94EF07BE01625E7F4FCE0101960E943C
:1037A000E00B4DEB51E0BE016F5F7F4FCE01885AB9
:1037B0009F4F0E947314A3CE8F79282F30E094E09E
:1037C000359527959A95E1F7922F990F990F622FCA
:1037D00037CFC8010E94ED1180CF6FEA71E087EB0F
:1037E00095E00E94C11164E671E087EB95E00E94CC
:1037F000C111A1CFBB27FB015527AA27880F991F0D
:10380000AA1FA41710F0A41B83955051B9F7A05D0F
:10381000AA3308F0A95DA193009779F7B111B1938C
:103820001192CB010C94141CDC01FC01672F7191E7
:103830007723E1F7329704C07C916D937083629196
:10384000AE17BF07C8F308950E94661CA59F900D90
:10385000B49F900DA49F800D911D112408952F9267
:103860003F924F925F926F927F928F929F92AF9210
:10387000BF92CF92DF92EF92FF920F931F93CF935D
:10388000DF93CDB7DEB7CA1BDB0B0FB6F894DEBFF4
:103890000FBECDBF09942A88398848885F846E841A
:1038A0007D848C849B84AA84B984C884DF80EE8064
:1038B000FD800C811B81AA81B981CE0FD11D0FB66D
:1038C000F894DEBF0FBECDBFED010895A29FB001F9
:1038D000B39FC001A39F700D811D1124911DB29F44
:1038E000700D811D1124911D0895EE0FFF1F05908D
:1038F000F491E02D09940F931F93CF93DF938230BF
:10390000910510F482E090E0E091C505F091C605C4
:1039100030E020E0B0E0A0E0309799F421153105C7
:1039200009F44AC0281B390B24303105D8F58A81A7
:103930009B816115710589F1FB0193838283FE01EF
:1039400011C0408151810281138148175907E0F06D
:103950004817590799F4109761F012960C93129733
:1039600013961C933296CF01DF91CF911F910F9147
:1039700008950093C5051093C605F4CF21153105B0
:1039800051F04217530738F0A901DB019A01BD013C
:10399000DF01F801C1CFEF01F9CF9093C605809305
:1039A000C505CDCFFE01E20FF31F81939193225005
:1039B000310939832883D7CF2091C3053091C405BD
:1039C000232B41F420910A0130910B013093C4055F
:1039D0002093C3052091080130910901211531057B
:1039E00041F42DB73EB740910C0150910D01241BBD
:1039F000350BE091C305F091C405E217F307A0F47D
:103A00002E1B3F0B2817390778F0AC014E5F5F4F34
:103A10002417350748F04E0F5F1F5093C40540939D
:103A2000C305819391939FCFF0E0E0E09CCFCF93CB
:103A3000DF930097E9F0FC01329713821282A09184
:103A4000C505B091C605ED0130E020E01097A1F466
:103A500020813181820F931F2091C3053091C405CD
:103A60002817390709F061C0F093C405E093C30536
:103A7000DF91CF910895EA01CE17DF07E8F54A817B
:103A80005B819E0141155105B1F7E901FB83EA8392
:103A900049915991C40FD51FEC17FD0761F480813E
:103AA00091810296840F951FE90199838883828111
:103AB00093819B838A83F0E0E0E012968D919C9144
:103AC00013970097B9F52D913C911197CD0102966E
:103AD000820F931F2091C3053091C4052817390721
:103AE00039F6309751F51092C6051092C505B0937E
:103AF000C405A093C305BCCFD383C2834081518149
:103B0000840F951FC817D90761F44E5F5F4F8881F6
:103B10009981480F591F518340838A819B819383E8
:103B200082832115310509F0B0CFF093C605E093EB
:103B3000C5059ECFFD01DC01C0CF13821282D7CF15
:103B4000B0E0A0E0E6EAFDE10C94311C8C010097A6
:103B500051F4CB010E947B1C8C01C801CDB7DEB7AC
:103B6000E0E10C944D1CFC01E60FF71F9C01225074
:103B70003109E217F30708F49DC0D901CD91DC911A
:103B80001197C617D70798F0C530D10530F3CE018D
:103B900004978617970708F3C61BD70B2297C19384
:103BA000D1936D937C93CF010E94171DD6CF5B01FB
:103BB000AC1ABD0A4C018C0E9D1EA091C505B0919A
:103BC000C605512C412CF12CE12C109731F5809138
:103BD000C3059091C4058815990509F05CC0461687
:103BE000570608F058C0809108019091090100978C
:103BF00041F48DB79EB740910C0150910D01841B8B
:103C0000950BE817F90708F055C0F093C405E09349
:103C1000C305F90171836083A0CF8D919C911197A9
:103C200012966C90129713967C901397A815B9056D
:103C300059F56C0142E0C40ED11CCA14DB0420F11A
:103C4000AC014A195B09DA011296159780F062827D
:103C5000738251834083D9016D937C93E114F10405
:103C600071F0D7011396FC93EE93129776CF2296BC
:103C70008C0F9D1FF90191838083F301EFCFF093A7
:103C8000C605E093C50569CF4816590608F42C010E
:103C90007D01D3019ACFCB010E947B1C7C01009750
:103CA00049F0AE01B8010E946A1EC8010E94171DAA
:103CB000870153CF10E000E050CFFB01DC0104C0CE
:103CC0008D910190801921F441505040C8F7881B14
:103CD000990B0895FB01DC0102C001900D92415047
:103CE0005040D8F70895FB01DC0101900D920020AF
:103CF000E1F70895FB01DC014150504048F001908C
:103D00000D920020C9F701C01D9241505040E0F7CC
:103D10000895F894FFCFFFFFFFFF810181010000AC
:103D2000C70580000000400014005400000000009F
:103D3000860C690C590C300C390CBC0DC60D0000FA
:103D4000000022028201AF016F02E001BE01D20138
:103D500000000000CF0B8201C909D40F0000000051
:103D60008E0F610FD50F370F5A0F470F380F000016
:103D70000000BB118201D50FD40F0D0A003A004993
:103D80006E697469616C697A696E67205344206357
:103D90006172642E2E2E006361726420696E6974F4
:103DA00069616C697A65642E0043617264206661A2
:103DB000696C65642C206F72206E6F742070726560
:103DC00073656E74006572726F72206F70656E69D4
:103DD0006E6720646174616C6F672E747874000084
:107E0000112484B714BE81FFF0D085E080938100F7
:107E100082E08093C00088E18093C10086E0809377
:107E2000C20080E18093C4008EE0C9D0259A86E02C
:107E300020E33CEF91E0309385002093840096BBD3
:107E4000B09BFECF1D9AA8958150A9F7CC24DD24C4
:107E500088248394B5E0AB2EA1E19A2EF3E0BF2EE7
:107E6000A2D0813461F49FD0082FAFD0023811F036
:107E7000013811F484E001C083E08DD089C08234E0
:107E800011F484E103C0853419F485E0A6D080C0E4
:107E9000853579F488D0E82EFF2485D0082F10E0AE
:107EA000102F00270E291F29000F111F8ED06801E7
:107EB0006FC0863521F484E090D080E0DECF843638
:107EC00009F040C070D06FD0082F6DD080E0C81688
:107ED00080E7D80618F4F601B7BEE895C0E0D1E017
:107EE00062D089930C17E1F7F0E0CF16F0E7DF06D8
:107EF00018F0F601B7BEE89568D007B600FCFDCFD4
:107F0000A601A0E0B1E02C9130E011968C91119780
:107F100090E0982F8827822B932B1296FA010C0160
:107F200087BEE89511244E5F5F4FF1E0A038BF0790
:107F300051F7F601A7BEE89507B600FCFDCF97BE46
:107F4000E89526C08437B1F42ED02DD0F82E2BD052
:107F50003CD0F601EF2C8F010F5F1F4F84911BD097
:107F6000EA94F801C1F70894C11CD11CFA94CF0C13
:107F7000D11C0EC0853739F428D08EE10CD085E9AC
:107F80000AD08FE07ACF813511F488E018D01DD067
:107F900080E101D065CF982F8091C00085FFFCCF94
:107FA0009093C60008958091C00087FFFCCF809118
:107FB000C00084FD01C0A8958091C6000895E0E648
:107FC000F0E098E1908380830895EDDF803219F02E
:107FD00088E0F5DFFFCF84E1DECF1F93182FE3DFCA
:107FE0001150E9F7F2DF1F91089580E0E8DFEE27F6
:047FF000FF270994CA
:027FFE00040479
:00000001FF
